{
    "abi": [
        {
            "type": "function",
            "name": "campaignCount",
            "inputs": [],
            "outputs": [
                {
                    "name": "",
                    "type": "uint256",
                    "internalType": "uint256"
                }
            ],
            "stateMutability": "view"
        },
        {
            "type": "function",
            "name": "campaigns",
            "inputs": [
                {
                    "name": "",
                    "type": "uint256",
                    "internalType": "uint256"
                }
            ],
            "outputs": [
                {
                    "name": "owner",
                    "type": "address",
                    "internalType": "address payable"
                },
                {
                    "name": "metadataURI",
                    "type": "string",
                    "internalType": "string"
                },
                {
                    "name": "goal",
                    "type": "uint256",
                    "internalType": "uint256"
                },
                {
                    "name": "pledged",
                    "type": "uint256",
                    "internalType": "uint256"
                },
                {
                    "name": "deadline",
                    "type": "uint256",
                    "internalType": "uint256"
                },
                {
                    "name": "withdrawn",
                    "type": "bool",
                    "internalType": "bool"
                }
            ],
            "stateMutability": "view"
        },
        {
            "type": "function",
            "name": "claimRefund",
            "inputs": [
                {
                    "name": "_id",
                    "type": "uint256",
                    "internalType": "uint256"
                }
            ],
            "outputs": [],
            "stateMutability": "nonpayable"
        },
        {
            "type": "function",
            "name": "createCampaign",
            "inputs": [
                {
                    "name": "_metadataURI",
                    "type": "string",
                    "internalType": "string"
                },
                {
                    "name": "_goal",
                    "type": "uint256",
                    "internalType": "uint256"
                },
                {
                    "name": "_durationSeconds",
                    "type": "uint256",
                    "internalType": "uint256"
                }
            ],
            "outputs": [
                {
                    "name": "",
                    "type": "uint256",
                    "internalType": "uint256"
                }
            ],
            "stateMutability": "nonpayable"
        },
        {
            "type": "function",
            "name": "donate",
            "inputs": [
                {
                    "name": "_id",
                    "type": "uint256",
                    "internalType": "uint256"
                }
            ],
            "outputs": [],
            "stateMutability": "payable"
        },
        {
            "type": "function",
            "name": "donations",
            "inputs": [
                {
                    "name": "",
                    "type": "uint256",
                    "internalType": "uint256"
                },
                {
                    "name": "",
                    "type": "address",
                    "internalType": "address"
                }
            ],
            "outputs": [
                {
                    "name": "",
                    "type": "uint256",
                    "internalType": "uint256"
                }
            ],
            "stateMutability": "view"
        },
        {
            "type": "function",
            "name": "donors",
            "inputs": [
                {
                    "name": "",
                    "type": "uint256",
                    "internalType": "uint256"
                },
                {
                    "name": "",
                    "type": "uint256",
                    "internalType": "uint256"
                }
            ],
            "outputs": [
                {
                    "name": "",
                    "type": "address",
                    "internalType": "address"
                }
            ],
            "stateMutability": "view"
        },
        {
            "type": "function",
            "name": "getDonation",
            "inputs": [
                {
                    "name": "_id",
                    "type": "uint256",
                    "internalType": "uint256"
                },
                {
                    "name": "_donor",
                    "type": "address",
                    "internalType": "address"
                }
            ],
            "outputs": [
                {
                    "name": "",
                    "type": "uint256",
                    "internalType": "uint256"
                }
            ],
            "stateMutability": "view"
        },
        {
            "type": "function",
            "name": "getDonors",
            "inputs": [
                {
                    "name": "_id",
                    "type": "uint256",
                    "internalType": "uint256"
                }
            ],
            "outputs": [
                {
                    "name": "",
                    "type": "address[]",
                    "internalType": "address[]"
                }
            ],
            "stateMutability": "view"
        },
        {
            "type": "function",
            "name": "withdraw",
            "inputs": [
                {
                    "name": "_id",
                    "type": "uint256",
                    "internalType": "uint256"
                }
            ],
            "outputs": [],
            "stateMutability": "nonpayable"
        },
        {
            "type": "event",
            "name": "CampaignCreated",
            "inputs": [
                {
                    "name": "id",
                    "type": "uint256",
                    "indexed": true,
                    "internalType": "uint256"
                },
                {
                    "name": "owner",
                    "type": "address",
                    "indexed": true,
                    "internalType": "address"
                },
                {
                    "name": "metadataURI",
                    "type": "string",
                    "indexed": false,
                    "internalType": "string"
                },
                {
                    "name": "goal",
                    "type": "uint256",
                    "indexed": false,
                    "internalType": "uint256"
                },
                {
                    "name": "deadline",
                    "type": "uint256",
                    "indexed": false,
                    "internalType": "uint256"
                }
            ],
            "anonymous": false
        },
        {
            "type": "event",
            "name": "DonationReceived",
            "inputs": [
                {
                    "name": "id",
                    "type": "uint256",
                    "indexed": true,
                    "internalType": "uint256"
                },
                {
                    "name": "donor",
                    "type": "address",
                    "indexed": true,
                    "internalType": "address"
                },
                {
                    "name": "amount",
                    "type": "uint256",
                    "indexed": false,
                    "internalType": "uint256"
                }
            ],
            "anonymous": false
        },
        {
            "type": "event",
            "name": "RefundClaimed",
            "inputs": [
                {
                    "name": "id",
                    "type": "uint256",
                    "indexed": true,
                    "internalType": "uint256"
                },
                {
                    "name": "donor",
                    "type": "address",
                    "indexed": true,
                    "internalType": "address"
                },
                {
                    "name": "amount",
                    "type": "uint256",
                    "indexed": false,
                    "internalType": "uint256"
                }
            ],
            "anonymous": false
        },
        {
            "type": "event",
            "name": "Withdrawn",
            "inputs": [
                {
                    "name": "id",
                    "type": "uint256",
                    "indexed": true,
                    "internalType": "uint256"
                },
                {
                    "name": "owner",
                    "type": "address",
                    "indexed": true,
                    "internalType": "address"
                },
                {
                    "name": "amount",
                    "type": "uint256",
                    "indexed": false,
                    "internalType": "uint256"
                }
            ],
            "anonymous": false
        },
        {
            "type": "error",
            "name": "AlreadyWithdrawn",
            "inputs": []
        },
        {
            "type": "error",
            "name": "CampaignClosed",
            "inputs": []
        },
        {
            "type": "error",
            "name": "CampaignNotFound",
            "inputs": []
        },
        {
            "type": "error",
            "name": "GoalAlreadyReached",
            "inputs": []
        },
        {
            "type": "error",
            "name": "GoalNotReached",
            "inputs": []
        },
        {
            "type": "error",
            "name": "NoDonation",
            "inputs": []
        },
        {
            "type": "error",
            "name": "NotOwner",
            "inputs": []
        }
    ],
    "bytecode": {
        "object": "0x608060405260016004553480156013575f5ffd5b50611b10806100215f395ff3fe608060405260043610610090575f3560e01c80637274e30d116100585780637274e30d1461019d57806383bd62dd146101c7578063c2bacfa814610203578063ee1554a31461023f578063f14faf6f1461027b57610090565b8063141961bc1461009457806329516511146100d55780632e1a7d4d146101115780633020580b146101395780635b7baf6414610175575b5f5ffd5b34801561009f575f5ffd5b506100ba60048036038101906100b5919061106f565b610297565b6040516100cc96959493929190611172565b60405180910390f35b3480156100e0575f5ffd5b506100fb60048036038101906100f6919061106f565b610380565b60405161010891906112a0565b60405180910390f35b34801561011c575f5ffd5b506101376004803603810190610132919061106f565b61041c565b005b348015610144575f5ffd5b5061015f600480360381019061015a9190611321565b610735565b60405161016c9190611392565b60405180910390f35b348015610180575f5ffd5b5061019b6004803603810190610196919061106f565b610985565b005b3480156101a8575f5ffd5b506101b1610cc5565b6040516101be9190611392565b60405180910390f35b3480156101d2575f5ffd5b506101ed60048036038101906101e891906113ab565b610cca565b6040516101fa91906113f8565b60405180910390f35b34801561020e575f5ffd5b506102296004803603810190610224919061143b565b610d12565b6040516102369190611392565b60405180910390f35b34801561024a575f5ffd5b506102656004803603810190610260919061143b565b610d68565b6040516102729190611392565b60405180910390f35b6102956004803603810190610290919061106f565b610d88565b005b6001602052805f5260405f205f91509050805f015f9054906101000a900473ffffffffffffffffffffffffffffffffffffffff16908060010180546102db906114a6565b80601f0160208091040260200160405190810160405280929190818152602001828054610307906114a6565b80156103525780601f1061032957610100808354040283529160200191610352565b820191905f5260205f20905b81548152906001019060200180831161033557829003601f168201915b505050505090806002015490806003015490806004015490806005015f9054906101000a900460ff16905086565b606060035f8381526020019081526020015f2080548060200260200160405190810160405280929190818152602001828054801561041057602002820191905f5260205f20905b815f9054906101000a900473ffffffffffffffffffffffffffffffffffffffff1673ffffffffffffffffffffffffffffffffffffffff16815260200190600101908083116103c7575b50505050509050919050565b600160045414610461576040517f08c379a000000000000000000000000000000000000000000000000000000000815260040161045890611520565b60405180910390fd5b60026004819055505f5481106104a3576040517f6ff36e1600000000000000000000000000000000000000000000000000000000815260040160405180910390fd5b5f60015f8381526020019081526020015f209050805f015f9054906101000a900473ffffffffffffffffffffffffffffffffffffffff1673ffffffffffffffffffffffffffffffffffffffff163373ffffffffffffffffffffffffffffffffffffffff161461053e576040517f30cd747100000000000000000000000000000000000000000000000000000000815260040160405180910390fd5b806005015f9054906101000a900460ff1615610586576040517f6507689f00000000000000000000000000000000000000000000000000000000815260040160405180910390fd5b8060020154816003015410156105c8576040517f78c754c900000000000000000000000000000000000000000000000000000000815260040160405180910390fd5b6001816005015f6101000a81548160ff0219169083151502179055505f816003015490505f825f015f9054906101000a900473ffffffffffffffffffffffffffffffffffffffff1673ffffffffffffffffffffffffffffffffffffffff16826040516106339061156b565b5f6040518083038185875af1925050503d805f811461066d576040519150601f19603f3d011682016040523d82523d5f602084013e610672565b606091505b50509050806106b6576040517f08c379a00000000000000000000000000000000000000000000000000000000081526004016106ad906115c9565b60405180910390fd5b825f015f9054906101000a900473ffffffffffffffffffffffffffffffffffffffff1673ffffffffffffffffffffffffffffffffffffffff16847fcf7d23a3cbe4e8b36ff82fd1b05b1b17373dc7804b4ebbd6e2356716ef2023728460405161071f9190611392565b60405180910390a3505050600160048190555050565b5f5f8311610778576040517f08c379a000000000000000000000000000000000000000000000000000000000815260040161076f90611631565b60405180910390fd5b5f82116107ba576040517f08c379a00000000000000000000000000000000000000000000000000000000081526004016107b190611699565b60405180910390fd5b5f5f5f8154809291906107cc906116e4565b9190505590506040518060c001604052803373ffffffffffffffffffffffffffffffffffffffff16815260200187878080601f0160208091040260200160405190810160405280939291908181526020018383808284375f81840152601f19601f8201169050808301925050505050505081526020018581526020015f8152602001844261085a919061172b565b81526020015f151581525060015f8381526020019081526020015f205f820151815f015f6101000a81548173ffffffffffffffffffffffffffffffffffffffff021916908373ffffffffffffffffffffffffffffffffffffffff16021790555060208201518160010190816108cf919061192b565b5060408201518160020155606082015181600301556080820151816004015560a0820151816005015f6101000a81548160ff0219169083151502179055509050503373ffffffffffffffffffffffffffffffffffffffff16817fdc26653af5b99b2da33e2ad69ee6600d9aeccc82b034501db4338309615ca23888888860015f8881526020019081526020015f20600401546040516109719493929190611a34565b60405180910390a380915050949350505050565b6001600454146109ca576040517f08c379a00000000000000000000000000000000000000000000000000000000081526004016109c190611520565b60405180910390fd5b60026004819055505f548110610a0c576040517f6ff36e1600000000000000000000000000000000000000000000000000000000815260040160405180910390fd5b5f60015f8381526020019081526020015f209050806005015f9054906101000a900460ff1615610a68576040517f8cb8251e00000000000000000000000000000000000000000000000000000000815260040160405180910390fd5b8060020154816003015410610aa9576040517f8cb8251e00000000000000000000000000000000000000000000000000000000815260040160405180910390fd5b80600401544211610ae6576040517fb49a509a00000000000000000000000000000000000000000000000000000000815260040160405180910390fd5b5f60025f8481526020019081526020015f205f3373ffffffffffffffffffffffffffffffffffffffff1673ffffffffffffffffffffffffffffffffffffffff1681526020019081526020015f205490505f8103610b6f576040517f5a3cf73700000000000000000000000000000000000000000000000000000000815260040160405180910390fd5b5f60025f8581526020019081526020015f205f3373ffffffffffffffffffffffffffffffffffffffff1673ffffffffffffffffffffffffffffffffffffffff1681526020019081526020015f20819055505f3373ffffffffffffffffffffffffffffffffffffffff1682604051610be59061156b565b5f6040518083038185875af1925050503d805f8114610c1f576040519150601f19603f3d011682016040523d82523d5f602084013e610c24565b606091505b5050905080610c68576040517f08c379a0000000000000000000000000000000000000000000000000000000008152600401610c5f90611abc565b60405180910390fd5b3373ffffffffffffffffffffffffffffffffffffffff16847ff3f402280ef0a7905e124aa621b65eaeb2725c343e8b36d398ed78c29daf285c84604051610caf9190611392565b60405180910390a3505050600160048190555050565b5f5481565b6003602052815f5260405f208181548110610ce3575f80fd5b905f5260205f20015f915091509054906101000a900473ffffffffffffffffffffffffffffffffffffffff1681565b5f60025f8481526020019081526020015f205f8373ffffffffffffffffffffffffffffffffffffffff1673ffffffffffffffffffffffffffffffffffffffff1681526020019081526020015f2054905092915050565b6002602052815f5260405f20602052805f5260405f205f91509150505481565b600160045414610dcd576040517f08c379a0000000000000000000000000000000000000000000000000000000008152600401610dc490611520565b60405180910390fd5b60026004819055505f548110610e0f576040517f6ff36e1600000000000000000000000000000000000000000000000000000000815260040160405180910390fd5b5f60015f8381526020019081526020015f2090508060040154421115610e61576040517fb49a509a00000000000000000000000000000000000000000000000000000000815260040160405180910390fd5b5f3403610e9a576040517f5a3cf73700000000000000000000000000000000000000000000000000000000815260040160405180910390fd5b5f60025f8481526020019081526020015f205f3373ffffffffffffffffffffffffffffffffffffffff1673ffffffffffffffffffffffffffffffffffffffff1681526020019081526020015f205403610f5d5760035f8381526020019081526020015f2033908060018154018082558091505060019003905f5260205f20015f9091909190916101000a81548173ffffffffffffffffffffffffffffffffffffffff021916908373ffffffffffffffffffffffffffffffffffffffff1602179055505b3460025f8481526020019081526020015f205f3373ffffffffffffffffffffffffffffffffffffffff1673ffffffffffffffffffffffffffffffffffffffff1681526020019081526020015f205f828254610fb8919061172b565b9250508190555034816003015f828254610fd2919061172b565b925050819055503373ffffffffffffffffffffffffffffffffffffffff16827f0b5b4c52969ff7329ecf7ee536409fda87812b15a8622bc6e8cdeab3aee14a26346040516110209190611392565b60405180910390a350600160048190555050565b5f5ffd5b5f5ffd5b5f819050919050565b61104e8161103c565b8114611058575f5ffd5b50565b5f8135905061106981611045565b92915050565b5f6020828403121561108457611083611034565b5b5f6110918482850161105b565b91505092915050565b5f73ffffffffffffffffffffffffffffffffffffffff82169050919050565b5f6110c38261109a565b9050919050565b6110d3816110b9565b82525050565b5f81519050919050565b5f82825260208201905092915050565b8281835e5f83830152505050565b5f601f19601f8301169050919050565b5f61111b826110d9565b61112581856110e3565b93506111358185602086016110f3565b61113e81611101565b840191505092915050565b6111528161103c565b82525050565b5f8115159050919050565b61116c81611158565b82525050565b5f60c0820190506111855f8301896110ca565b81810360208301526111978188611111565b90506111a66040830187611149565b6111b36060830186611149565b6111c06080830185611149565b6111cd60a0830184611163565b979650505050505050565b5f81519050919050565b5f82825260208201905092915050565b5f819050602082019050919050565b5f61120b8261109a565b9050919050565b61121b81611201565b82525050565b5f61122c8383611212565b60208301905092915050565b5f602082019050919050565b5f61124e826111d8565b61125881856111e2565b9350611263836111f2565b805f5b8381101561129357815161127a8882611221565b975061128583611238565b925050600181019050611266565b5085935050505092915050565b5f6020820190508181035f8301526112b88184611244565b905092915050565b5f5ffd5b5f5ffd5b5f5ffd5b5f5f83601f8401126112e1576112e06112c0565b5b8235905067ffffffffffffffff8111156112fe576112fd6112c4565b5b60208301915083600182028301111561131a576113196112c8565b5b9250929050565b5f5f5f5f6060858703121561133957611338611034565b5b5f85013567ffffffffffffffff81111561135657611355611038565b5b611362878288016112cc565b945094505060206113758782880161105b565b92505060406113868782880161105b565b91505092959194509250565b5f6020820190506113a55f830184611149565b92915050565b5f5f604083850312156113c1576113c0611034565b5b5f6113ce8582860161105b565b92505060206113df8582860161105b565b9150509250929050565b6113f281611201565b82525050565b5f60208201905061140b5f8301846113e9565b92915050565b61141a81611201565b8114611424575f5ffd5b50565b5f8135905061143581611411565b92915050565b5f5f6040838503121561145157611450611034565b5b5f61145e8582860161105b565b925050602061146f85828601611427565b9150509250929050565b7f4e487b71000000000000000000000000000000000000000000000000000000005f52602260045260245ffd5b5f60028204905060018216806114bd57607f821691505b6020821081036114d0576114cf611479565b5b50919050565b7f5265656e7472616e637947756172643a207265656e7472616e742063616c6c005f82015250565b5f61150a601f836110e3565b9150611515826114d6565b602082019050919050565b5f6020820190508181035f830152611537816114fe565b9050919050565b5f81905092915050565b50565b5f6115565f8361153e565b915061156182611548565b5f82019050919050565b5f6115758261154b565b9150819050919050565b7f5472616e73666572206661696c656400000000000000000000000000000000005f82015250565b5f6115b3600f836110e3565b91506115be8261157f565b602082019050919050565b5f6020820190508181035f8301526115e0816115a7565b9050919050565b7f476f616c206d757374206265203e2030000000000000000000000000000000005f82015250565b5f61161b6010836110e3565b9150611626826115e7565b602082019050919050565b5f6020820190508181035f8301526116488161160f565b9050919050565b7f4475726174696f6e206d757374206265203e20300000000000000000000000005f82015250565b5f6116836014836110e3565b915061168e8261164f565b602082019050919050565b5f6020820190508181035f8301526116b081611677565b9050919050565b7f4e487b71000000000000000000000000000000000000000000000000000000005f52601160045260245ffd5b5f6116ee8261103c565b91507fffffffffffffffffffffffffffffffffffffffffffffffffffffffffffffffff82036117205761171f6116b7565b5b600182019050919050565b5f6117358261103c565b91506117408361103c565b9250828201905080821115611758576117576116b7565b5b92915050565b7f4e487b71000000000000000000000000000000000000000000000000000000005f52604160045260245ffd5b5f819050815f5260205f209050919050565b5f6020601f8301049050919050565b5f82821b905092915050565b5f600883026117e77fffffffffffffffffffffffffffffffffffffffffffffffffffffffffffffffff826117ac565b6117f186836117ac565b95508019841693508086168417925050509392505050565b5f819050919050565b5f61182c6118276118228461103c565b611809565b61103c565b9050919050565b5f819050919050565b61184583611812565b61185961185182611833565b8484546117b8565b825550505050565b5f5f905090565b611870611861565b61187b81848461183c565b505050565b5b8181101561189e576118935f82611868565b600181019050611881565b5050565b601f8211156118e3576118b48161178b565b6118bd8461179d565b810160208510156118cc578190505b6118e06118d88561179d565b830182611880565b50505b505050565b5f82821c905092915050565b5f6119035f19846008026118e8565b1980831691505092915050565b5f61191b83836118f4565b9150826002028217905092915050565b611934826110d9565b67ffffffffffffffff81111561194d5761194c61175e565b5b61195782546114a6565b6119628282856118a2565b5f60209050601f831160018114611993575f8415611981578287015190505b61198b8582611910565b8655506119f2565b601f1984166119a18661178b565b5f5b828110156119c8578489015182556001820191506020850194506020810190506119a3565b868310156119e557848901516119e1601f8916826118f4565b8355505b6001600288020188555050505b505050505050565b828183375f83830152505050565b5f611a1383856110e3565b9350611a208385846119fa565b611a2983611101565b840190509392505050565b5f6060820190508181035f830152611a4d818688611a08565b9050611a5c6020830185611149565b611a696040830184611149565b95945050505050565b7f526566756e64206661696c6564000000000000000000000000000000000000005f82015250565b5f611aa6600d836110e3565b9150611ab182611a72565b602082019050919050565b5f6020820190508181035f830152611ad381611a9a565b905091905056fea26469706673582212201b77a5f3091dd6b0e306b59e29f7374edd0fe324611b359b7efb53af92c9372a64736f6c634300081e0033",
        "linkReferences": {}
    },
    "methodIdentifiers": {
        "campaignCount()": "7274e30d",
        "campaigns(uint256)": "141961bc",
        "claimRefund(uint256)": "5b7baf64",
        "createCampaign(string,uint256,uint256)": "3020580b",
        "donate(uint256)": "f14faf6f",
        "donations(uint256,address)": "ee1554a3",
        "donors(uint256,uint256)": "83bd62dd",
        "getDonation(uint256,address)": "c2bacfa8",
        "getDonors(uint256)": "29516511",
        "withdraw(uint256)": "2e1a7d4d"
    },
    "id": 0
}