{
    "abi": [
        {
            "type": "function",
            "name": "campaignCount",
            "inputs": [],
            "outputs": [
                {
                    "name": "",
                    "type": "uint256",
                    "internalType": "uint256"
                }
            ],
            "stateMutability": "view"
        },
        {
            "type": "function",
            "name": "campaigns",
            "inputs": [
                {
                    "name": "",
                    "type": "uint256",
                    "internalType": "uint256"
                }
            ],
            "outputs": [
                {
                    "name": "owner",
                    "type": "address",
                    "internalType": "address payable"
                },
                {
                    "name": "metadataURI",
                    "type": "string",
                    "internalType": "string"
                },
                {
                    "name": "goal",
                    "type": "uint256",
                    "internalType": "uint256"
                },
                {
                    "name": "pledged",
                    "type": "uint256",
                    "internalType": "uint256"
                },
                {
                    "name": "deadline",
                    "type": "uint256",
                    "internalType": "uint256"
                },
                {
                    "name": "withdrawn",
                    "type": "bool",
                    "internalType": "bool"
                }
            ],
            "stateMutability": "view"
        },
        {
            "type": "function",
            "name": "claimRefund",
            "inputs": [
                {
                    "name": "_id",
                    "type": "uint256",
                    "internalType": "uint256"
                }
            ],
            "outputs": [],
            "stateMutability": "nonpayable"
        },
        {
            "type": "function",
            "name": "createCampaign",
            "inputs": [
                {
                    "name": "_metadataURI",
                    "type": "string",
                    "internalType": "string"
                },
                {
                    "name": "_goal",
                    "type": "uint256",
                    "internalType": "uint256"
                },
                {
                    "name": "_durationSeconds",
                    "type": "uint256",
                    "internalType": "uint256"
                }
            ],
            "outputs": [
                {
                    "name": "",
                    "type": "uint256",
                    "internalType": "uint256"
                }
            ],
            "stateMutability": "nonpayable"
        },
        {
            "type": "function",
            "name": "donate",
            "inputs": [
                {
                    "name": "_id",
                    "type": "uint256",
                    "internalType": "uint256"
                }
            ],
            "outputs": [],
            "stateMutability": "payable"
        },
        {
            "type": "function",
            "name": "donations",
            "inputs": [
                {
                    "name": "",
                    "type": "uint256",
                    "internalType": "uint256"
                },
                {
                    "name": "",
                    "type": "address",
                    "internalType": "address"
                }
            ],
            "outputs": [
                {
                    "name": "",
                    "type": "uint256",
                    "internalType": "uint256"
                }
            ],
            "stateMutability": "view"
        },
        {
            "type": "function",
            "name": "donors",
            "inputs": [
                {
                    "name": "",
                    "type": "uint256",
                    "internalType": "uint256"
                },
                {
                    "name": "",
                    "type": "uint256",
                    "internalType": "uint256"
                }
            ],
            "outputs": [
                {
                    "name": "",
                    "type": "address",
                    "internalType": "address"
                }
            ],
            "stateMutability": "view"
        },
        {
            "type": "function",
            "name": "getCampaign",
            "inputs": [
                {
                    "name": "_id",
                    "type": "uint256",
                    "internalType": "uint256"
                }
            ],
            "outputs": [
                {
                    "name": "",
                    "type": "tuple",
                    "internalType": "struct SimpleCrowdfund.Campaign",
                    "components": [
                        {
                            "name": "owner",
                            "type": "address",
                            "internalType": "address payable"
                        },
                        {
                            "name": "metadataURI",
                            "type": "string",
                            "internalType": "string"
                        },
                        {
                            "name": "goal",
                            "type": "uint256",
                            "internalType": "uint256"
                        },
                        {
                            "name": "pledged",
                            "type": "uint256",
                            "internalType": "uint256"
                        },
                        {
                            "name": "deadline",
                            "type": "uint256",
                            "internalType": "uint256"
                        },
                        {
                            "name": "withdrawn",
                            "type": "bool",
                            "internalType": "bool"
                        }
                    ]
                }
            ],
            "stateMutability": "view"
        },
        {
            "type": "function",
            "name": "getDonation",
            "inputs": [
                {
                    "name": "_id",
                    "type": "uint256",
                    "internalType": "uint256"
                },
                {
                    "name": "_donor",
                    "type": "address",
                    "internalType": "address"
                }
            ],
            "outputs": [
                {
                    "name": "",
                    "type": "uint256",
                    "internalType": "uint256"
                }
            ],
            "stateMutability": "view"
        },
        {
            "type": "function",
            "name": "getDonors",
            "inputs": [
                {
                    "name": "_id",
                    "type": "uint256",
                    "internalType": "uint256"
                }
            ],
            "outputs": [
                {
                    "name": "",
                    "type": "address[]",
                    "internalType": "address[]"
                }
            ],
            "stateMutability": "view"
        },
        {
            "type": "function",
            "name": "withdraw",
            "inputs": [
                {
                    "name": "_id",
                    "type": "uint256",
                    "internalType": "uint256"
                }
            ],
            "outputs": [],
            "stateMutability": "nonpayable"
        },
        {
            "type": "event",
            "name": "CampaignCreated",
            "inputs": [
                {
                    "name": "id",
                    "type": "uint256",
                    "indexed": true,
                    "internalType": "uint256"
                },
                {
                    "name": "owner",
                    "type": "address",
                    "indexed": true,
                    "internalType": "address"
                },
                {
                    "name": "metadataURI",
                    "type": "string",
                    "indexed": false,
                    "internalType": "string"
                },
                {
                    "name": "goal",
                    "type": "uint256",
                    "indexed": false,
                    "internalType": "uint256"
                },
                {
                    "name": "deadline",
                    "type": "uint256",
                    "indexed": false,
                    "internalType": "uint256"
                }
            ],
            "anonymous": false
        },
        {
            "type": "event",
            "name": "DonationReceived",
            "inputs": [
                {
                    "name": "id",
                    "type": "uint256",
                    "indexed": true,
                    "internalType": "uint256"
                },
                {
                    "name": "donor",
                    "type": "address",
                    "indexed": true,
                    "internalType": "address"
                },
                {
                    "name": "amount",
                    "type": "uint256",
                    "indexed": false,
                    "internalType": "uint256"
                }
            ],
            "anonymous": false
        },
        {
            "type": "event",
            "name": "RefundClaimed",
            "inputs": [
                {
                    "name": "id",
                    "type": "uint256",
                    "indexed": true,
                    "internalType": "uint256"
                },
                {
                    "name": "donor",
                    "type": "address",
                    "indexed": true,
                    "internalType": "address"
                },
                {
                    "name": "amount",
                    "type": "uint256",
                    "indexed": false,
                    "internalType": "uint256"
                }
            ],
            "anonymous": false
        },
        {
            "type": "event",
            "name": "Withdrawn",
            "inputs": [
                {
                    "name": "id",
                    "type": "uint256",
                    "indexed": true,
                    "internalType": "uint256"
                },
                {
                    "name": "owner",
                    "type": "address",
                    "indexed": true,
                    "internalType": "address"
                },
                {
                    "name": "amount",
                    "type": "uint256",
                    "indexed": false,
                    "internalType": "uint256"
                }
            ],
            "anonymous": false
        },
        {
            "type": "error",
            "name": "AlreadyWithdrawn",
            "inputs": []
        },
        {
            "type": "error",
            "name": "CampaignClosed",
            "inputs": []
        },
        {
            "type": "error",
            "name": "CampaignNotFound",
            "inputs": []
        },
        {
            "type": "error",
            "name": "GoalAlreadyReached",
            "inputs": []
        },
        {
            "type": "error",
            "name": "GoalNotReached",
            "inputs": []
        },
        {
            "type": "error",
            "name": "NoDonation",
            "inputs": []
        },
        {
            "type": "error",
            "name": "NotOwner",
            "inputs": []
        }
    ],
    "bytecode": {
        "object": "0x608060405260016004553480156013575f5ffd5b50611e02806100215f395ff3fe60806040526004361061009b575f3560e01c80635b7baf64116100635780635b7baf64146101bc5780637274e30d146101e457806383bd62dd1461020e578063c2bacfa81461024a578063ee1554a314610286578063f14faf6f146102c25761009b565b8063141961bc1461009f57806329516511146100e05780632e1a7d4d1461011c5780633020580b146101445780635598f8cc14610180575b5f5ffd5b3480156100aa575f5ffd5b506100c560048036038101906100c09190611246565b6102de565b6040516100d796959493929190611349565b60405180910390f35b3480156100eb575f5ffd5b5061010660048036038101906101019190611246565b6103c7565b6040516101139190611477565b60405180910390f35b348015610127575f5ffd5b50610142600480360381019061013d9190611246565b610463565b005b34801561014f575f5ffd5b5061016a600480360381019061016591906114f8565b61077c565b6040516101779190611569565b60405180910390f35b34801561018b575f5ffd5b506101a660048036038101906101a19190611246565b6109cc565b6040516101b3919061167d565b60405180910390f35b3480156101c7575f5ffd5b506101e260048036038101906101dd9190611246565b610b13565b005b3480156101ef575f5ffd5b506101f8610e53565b6040516102059190611569565b60405180910390f35b348015610219575f5ffd5b50610234600480360381019061022f919061169d565b610e58565b60405161024191906116ea565b60405180910390f35b348015610255575f5ffd5b50610270600480360381019061026b919061172d565b610ea0565b60405161027d9190611569565b60405180910390f35b348015610291575f5ffd5b506102ac60048036038101906102a7919061172d565b610ef6565b6040516102b99190611569565b60405180910390f35b6102dc60048036038101906102d79190611246565b610f16565b005b6001602052805f5260405f205f91509050805f015f9054906101000a900473ffffffffffffffffffffffffffffffffffffffff169080600101805461032290611798565b80601f016020809104026020016040519081016040528092919081815260200182805461034e90611798565b80156103995780601f1061037057610100808354040283529160200191610399565b820191905f5260205f20905b81548152906001019060200180831161037c57829003601f168201915b505050505090806002015490806003015490806004015490806005015f9054906101000a900460ff16905086565b606060035f8381526020019081526020015f2080548060200260200160405190810160405280929190818152602001828054801561045757602002820191905f5260205f20905b815f9054906101000a900473ffffffffffffffffffffffffffffffffffffffff1673ffffffffffffffffffffffffffffffffffffffff168152602001906001019080831161040e575b50505050509050919050565b6001600454146104a8576040517f08c379a000000000000000000000000000000000000000000000000000000000815260040161049f90611812565b60405180910390fd5b60026004819055505f5481106104ea576040517f6ff36e1600000000000000000000000000000000000000000000000000000000815260040160405180910390fd5b5f60015f8381526020019081526020015f209050805f015f9054906101000a900473ffffffffffffffffffffffffffffffffffffffff1673ffffffffffffffffffffffffffffffffffffffff163373ffffffffffffffffffffffffffffffffffffffff1614610585576040517f30cd747100000000000000000000000000000000000000000000000000000000815260040160405180910390fd5b806005015f9054906101000a900460ff16156105cd576040517f6507689f00000000000000000000000000000000000000000000000000000000815260040160405180910390fd5b80600201548160030154101561060f576040517f78c754c900000000000000000000000000000000000000000000000000000000815260040160405180910390fd5b6001816005015f6101000a81548160ff0219169083151502179055505f816003015490505f825f015f9054906101000a900473ffffffffffffffffffffffffffffffffffffffff1673ffffffffffffffffffffffffffffffffffffffff168260405161067a9061185d565b5f6040518083038185875af1925050503d805f81146106b4576040519150601f19603f3d011682016040523d82523d5f602084013e6106b9565b606091505b50509050806106fd576040517f08c379a00000000000000000000000000000000000000000000000000000000081526004016106f4906118bb565b60405180910390fd5b825f015f9054906101000a900473ffffffffffffffffffffffffffffffffffffffff1673ffffffffffffffffffffffffffffffffffffffff16847fcf7d23a3cbe4e8b36ff82fd1b05b1b17373dc7804b4ebbd6e2356716ef202372846040516107669190611569565b60405180910390a3505050600160048190555050565b5f5f83116107bf576040517f08c379a00000000000000000000000000000000000000000000000000000000081526004016107b690611923565b60405180910390fd5b5f8211610801576040517f08c379a00000000000000000000000000000000000000000000000000000000081526004016107f89061198b565b60405180910390fd5b5f5f5f815480929190610813906119d6565b9190505590506040518060c001604052803373ffffffffffffffffffffffffffffffffffffffff16815260200187878080601f0160208091040260200160405190810160405280939291908181526020018383808284375f81840152601f19601f8201169050808301925050505050505081526020018581526020015f815260200184426108a19190611a1d565b81526020015f151581525060015f8381526020019081526020015f205f820151815f015f6101000a81548173ffffffffffffffffffffffffffffffffffffffff021916908373ffffffffffffffffffffffffffffffffffffffff16021790555060208201518160010190816109169190611c1d565b5060408201518160020155606082015181600301556080820151816004015560a0820151816005015f6101000a81548160ff0219169083151502179055509050503373ffffffffffffffffffffffffffffffffffffffff16817fdc26653af5b99b2da33e2ad69ee6600d9aeccc82b034501db4338309615ca23888888860015f8881526020019081526020015f20600401546040516109b89493929190611d26565b60405180910390a380915050949350505050565b6109d46111c2565b60015f8381526020019081526020015f206040518060c00160405290815f82015f9054906101000a900473ffffffffffffffffffffffffffffffffffffffff1673ffffffffffffffffffffffffffffffffffffffff1673ffffffffffffffffffffffffffffffffffffffff168152602001600182018054610a5490611798565b80601f0160208091040260200160405190810160405280929190818152602001828054610a8090611798565b8015610acb5780601f10610aa257610100808354040283529160200191610acb565b820191905f5260205f20905b815481529060010190602001808311610aae57829003601f168201915b50505050508152602001600282015481526020016003820154815260200160048201548152602001600582015f9054906101000a900460ff1615151515815250509050919050565b600160045414610b58576040517f08c379a0000000000000000000000000000000000000000000000000000000008152600401610b4f90611812565b60405180910390fd5b60026004819055505f548110610b9a576040517f6ff36e1600000000000000000000000000000000000000000000000000000000815260040160405180910390fd5b5f60015f8381526020019081526020015f209050806005015f9054906101000a900460ff1615610bf6576040517f8cb8251e00000000000000000000000000000000000000000000000000000000815260040160405180910390fd5b8060020154816003015410610c37576040517f8cb8251e00000000000000000000000000000000000000000000000000000000815260040160405180910390fd5b80600401544211610c74576040517fb49a509a00000000000000000000000000000000000000000000000000000000815260040160405180910390fd5b5f60025f8481526020019081526020015f205f3373ffffffffffffffffffffffffffffffffffffffff1673ffffffffffffffffffffffffffffffffffffffff1681526020019081526020015f205490505f8103610cfd576040517f5a3cf73700000000000000000000000000000000000000000000000000000000815260040160405180910390fd5b5f60025f8581526020019081526020015f205f3373ffffffffffffffffffffffffffffffffffffffff1673ffffffffffffffffffffffffffffffffffffffff1681526020019081526020015f20819055505f3373ffffffffffffffffffffffffffffffffffffffff1682604051610d739061185d565b5f6040518083038185875af1925050503d805f8114610dad576040519150601f19603f3d011682016040523d82523d5f602084013e610db2565b606091505b5050905080610df6576040517f08c379a0000000000000000000000000000000000000000000000000000000008152600401610ded90611dae565b60405180910390fd5b3373ffffffffffffffffffffffffffffffffffffffff16847ff3f402280ef0a7905e124aa621b65eaeb2725c343e8b36d398ed78c29daf285c84604051610e3d9190611569565b60405180910390a3505050600160048190555050565b5f5481565b6003602052815f5260405f208181548110610e71575f80fd5b905f5260205f20015f915091509054906101000a900473ffffffffffffffffffffffffffffffffffffffff1681565b5f60025f8481526020019081526020015f205f8373ffffffffffffffffffffffffffffffffffffffff1673ffffffffffffffffffffffffffffffffffffffff1681526020019081526020015f2054905092915050565b6002602052815f5260405f20602052805f5260405f205f91509150505481565b600160045414610f5b576040517f08c379a0000000000000000000000000000000000000000000000000000000008152600401610f5290611812565b60405180910390fd5b60026004819055505f548110610f9d576040517f6ff36e1600000000000000000000000000000000000000000000000000000000815260040160405180910390fd5b5f60015f8381526020019081526020015f2090508060040154421115610fef576040517fb49a509a00000000000000000000000000000000000000000000000000000000815260040160405180910390fd5b5f3403611028576040517f5a3cf73700000000000000000000000000000000000000000000000000000000815260040160405180910390fd5b5f60025f8481526020019081526020015f205f3373ffffffffffffffffffffffffffffffffffffffff1673ffffffffffffffffffffffffffffffffffffffff1681526020019081526020015f2054036110eb5760035f8381526020019081526020015f2033908060018154018082558091505060019003905f5260205f20015f9091909190916101000a81548173ffffffffffffffffffffffffffffffffffffffff021916908373ffffffffffffffffffffffffffffffffffffffff1602179055505b3460025f8481526020019081526020015f205f3373ffffffffffffffffffffffffffffffffffffffff1673ffffffffffffffffffffffffffffffffffffffff1681526020019081526020015f205f8282546111469190611a1d565b9250508190555034816003015f8282546111609190611a1d565b925050819055503373ffffffffffffffffffffffffffffffffffffffff16827f0b5b4c52969ff7329ecf7ee536409fda87812b15a8622bc6e8cdeab3aee14a26346040516111ae9190611569565b60405180910390a350600160048190555050565b6040518060c001604052805f73ffffffffffffffffffffffffffffffffffffffff168152602001606081526020015f81526020015f81526020015f81526020015f151581525090565b5f5ffd5b5f5ffd5b5f819050919050565b61122581611213565b811461122f575f5ffd5b50565b5f813590506112408161121c565b92915050565b5f6020828403121561125b5761125a61120b565b5b5f61126884828501611232565b91505092915050565b5f73ffffffffffffffffffffffffffffffffffffffff82169050919050565b5f61129a82611271565b9050919050565b6112aa81611290565b82525050565b5f81519050919050565b5f82825260208201905092915050565b8281835e5f83830152505050565b5f601f19601f8301169050919050565b5f6112f2826112b0565b6112fc81856112ba565b935061130c8185602086016112ca565b611315816112d8565b840191505092915050565b61132981611213565b82525050565b5f8115159050919050565b6113438161132f565b82525050565b5f60c08201905061135c5f8301896112a1565b818103602083015261136e81886112e8565b905061137d6040830187611320565b61138a6060830186611320565b6113976080830185611320565b6113a460a083018461133a565b979650505050505050565b5f81519050919050565b5f82825260208201905092915050565b5f819050602082019050919050565b5f6113e282611271565b9050919050565b6113f2816113d8565b82525050565b5f61140383836113e9565b60208301905092915050565b5f602082019050919050565b5f611425826113af565b61142f81856113b9565b935061143a836113c9565b805f5b8381101561146a57815161145188826113f8565b975061145c8361140f565b92505060018101905061143d565b5085935050505092915050565b5f6020820190508181035f83015261148f818461141b565b905092915050565b5f5ffd5b5f5ffd5b5f5ffd5b5f5f83601f8401126114b8576114b7611497565b5b8235905067ffffffffffffffff8111156114d5576114d461149b565b5b6020830191508360018202830111156114f1576114f061149f565b5b9250929050565b5f5f5f5f606085870312156115105761150f61120b565b5b5f85013567ffffffffffffffff81111561152d5761152c61120f565b5b611539878288016114a3565b9450945050602061154c87828801611232565b925050604061155d87828801611232565b91505092959194509250565b5f60208201905061157c5f830184611320565b92915050565b61158b81611290565b82525050565b5f82825260208201905092915050565b5f6115ab826112b0565b6115b58185611591565b93506115c58185602086016112ca565b6115ce816112d8565b840191505092915050565b6115e281611213565b82525050565b6115f18161132f565b82525050565b5f60c083015f83015161160c5f860182611582565b506020830151848203602086015261162482826115a1565b915050604083015161163960408601826115d9565b50606083015161164c60608601826115d9565b50608083015161165f60808601826115d9565b5060a083015161167260a08601826115e8565b508091505092915050565b5f6020820190508181035f83015261169581846115f7565b905092915050565b5f5f604083850312156116b3576116b261120b565b5b5f6116c085828601611232565b92505060206116d185828601611232565b9150509250929050565b6116e4816113d8565b82525050565b5f6020820190506116fd5f8301846116db565b92915050565b61170c816113d8565b8114611716575f5ffd5b50565b5f8135905061172781611703565b92915050565b5f5f604083850312156117435761174261120b565b5b5f61175085828601611232565b925050602061176185828601611719565b9150509250929050565b7f4e487b71000000000000000000000000000000000000000000000000000000005f52602260045260245ffd5b5f60028204905060018216806117af57607f821691505b6020821081036117c2576117c161176b565b5b50919050565b7f5265656e7472616e637947756172643a207265656e7472616e742063616c6c005f82015250565b5f6117fc601f836112ba565b9150611807826117c8565b602082019050919050565b5f6020820190508181035f830152611829816117f0565b9050919050565b5f81905092915050565b50565b5f6118485f83611830565b91506118538261183a565b5f82019050919050565b5f6118678261183d565b9150819050919050565b7f5472616e73666572206661696c656400000000000000000000000000000000005f82015250565b5f6118a5600f836112ba565b91506118b082611871565b602082019050919050565b5f6020820190508181035f8301526118d281611899565b9050919050565b7f476f616c206d757374206265203e2030000000000000000000000000000000005f82015250565b5f61190d6010836112ba565b9150611918826118d9565b602082019050919050565b5f6020820190508181035f83015261193a81611901565b9050919050565b7f4475726174696f6e206d757374206265203e20300000000000000000000000005f82015250565b5f6119756014836112ba565b915061198082611941565b602082019050919050565b5f6020820190508181035f8301526119a281611969565b9050919050565b7f4e487b71000000000000000000000000000000000000000000000000000000005f52601160045260245ffd5b5f6119e082611213565b91507fffffffffffffffffffffffffffffffffffffffffffffffffffffffffffffffff8203611a1257611a116119a9565b5b600182019050919050565b5f611a2782611213565b9150611a3283611213565b9250828201905080821115611a4a57611a496119a9565b5b92915050565b7f4e487b71000000000000000000000000000000000000000000000000000000005f52604160045260245ffd5b5f819050815f5260205f209050919050565b5f6020601f8301049050919050565b5f82821b905092915050565b5f60088302611ad97fffffffffffffffffffffffffffffffffffffffffffffffffffffffffffffffff82611a9e565b611ae38683611a9e565b95508019841693508086168417925050509392505050565b5f819050919050565b5f611b1e611b19611b1484611213565b611afb565b611213565b9050919050565b5f819050919050565b611b3783611b04565b611b4b611b4382611b25565b848454611aaa565b825550505050565b5f5f905090565b611b62611b53565b611b6d818484611b2e565b505050565b5b81811015611b9057611b855f82611b5a565b600181019050611b73565b5050565b601f821115611bd557611ba681611a7d565b611baf84611a8f565b81016020851015611bbe578190505b611bd2611bca85611a8f565b830182611b72565b50505b505050565b5f82821c905092915050565b5f611bf55f1984600802611bda565b1980831691505092915050565b5f611c0d8383611be6565b9150826002028217905092915050565b611c26826112b0565b67ffffffffffffffff811115611c3f57611c3e611a50565b5b611c498254611798565b611c54828285611b94565b5f60209050601f831160018114611c85575f8415611c73578287015190505b611c7d8582611c02565b865550611ce4565b601f198416611c9386611a7d565b5f5b82811015611cba57848901518255600182019150602085019450602081019050611c95565b86831015611cd75784890151611cd3601f891682611be6565b8355505b6001600288020188555050505b505050505050565b828183375f83830152505050565b5f611d0583856112ba565b9350611d12838584611cec565b611d1b836112d8565b840190509392505050565b5f6060820190508181035f830152611d3f818688611cfa565b9050611d4e6020830185611320565b611d5b6040830184611320565b95945050505050565b7f526566756e64206661696c6564000000000000000000000000000000000000005f82015250565b5f611d98600d836112ba565b9150611da382611d64565b602082019050919050565b5f6020820190508181035f830152611dc581611d8c565b905091905056fea2646970667358221220ed4887a91d3a8e0a17e1f83ffbeaf6c8dad0b2423ded070857c31208b047828b64736f6c634300081e0033",
        "linkReferences": {}
    },
    "methodIdentifiers": {
        "campaignCount()": "7274e30d",
        "campaigns(uint256)": "141961bc",
        "claimRefund(uint256)": "5b7baf64",
        "createCampaign(string,uint256,uint256)": "3020580b",
        "donate(uint256)": "f14faf6f",
        "donations(uint256,address)": "ee1554a3",
        "donors(uint256,uint256)": "83bd62dd",
        "getCampaign(uint256)": "5598f8cc",
        "getDonation(uint256,address)": "c2bacfa8",
        "getDonors(uint256)": "29516511",
        "withdraw(uint256)": "2e1a7d4d"
    },
    "id": 22
}